:100000000C9434000C943E000C943E000C943E0082
:100010000C943E000C943E000C943E000C943E0068
:100020000C943E000C943E000C943E000C943E0058
:100030000C943E000C945C000C943E000C943E002A
:100040000C943E000C943E000C943E000C943E0038
:100050000C943E000C943E000C943E000C943E0028
:100060000C943E000C943E0011241FBECFEFD8E04C
:10007000DEBFCDBF0E9440000C94F1000C94000044
:1000800085E480937C0085EA80937A0085E0809304
:10009000810081E080936F0087EF92EC9093850060
:1000A000809384007894FFCFE0ECF0E0908195FF9E
:1000B000FDCF8093C60008951F920F920FB60F9246
:1000C00011240F931F932F933F934F935F936F933D
:1000D0007F938F939F93AF93BF93CF93DF93EF93D0
:1000E000FF93EAE7F0E0808180648083808184FF71
:1000F000FDCFEAE7F0E08081806180838091780025
:100100002091790090E0922B9C01332314F421502C
:100110003C4F832F8595859530E0282F2295207FB1
:10012000CAE0D0E0832F922FBE010E94C9008B014C
:10013000832F922F68EE73E00E94C900CB01C09616
:100140000E945400C80164E670E00E94C900BE012C
:100150000E94C900CB01C0960E94540087EF92EC28
:100160009093850080938400FF91EF91DF91CF9170
:10017000BF91AF919F918F917F916F915F914F91BF
:100180003F912F911F910F910F900FBE0F901F90D5
:10019000189597FB072E16F4009407D077FD09D029
:1001A0000E94DD0007FC05D03EF4909581959F4F9D
:1001B0000895709561957F4F0895AA1BBB1B51E16F
:1001C00007C0AA1FBB1FA617B70710F0A61BB70BC7
:1001D000881F991F5A95A9F780959095BC01CD016C
:0601E0000895F894FFCF22
:00000001FF
