S00D000044415F34412E73726563BE
S11300000C9434000C9446000C9446000C94460066
S11300100C9468000C9446000C9446000C94460022
S11300200C9446000C9446000C9446000C94460034
S11300300C9446000C9446000C9446000C94460024
S11300400C9446000C9446000C9446000C94460014
S11300500C9446000C9446000C9446000C94460004
S11300600C9446000C94460011241FBECFEFD8E038
S1130070DEBFCDBF21E0A0E0B1E001C01D92A230FF
S1130080B207E1F70E9448000C94AA000C94000007
S113009080E38AB982E087B9419A84B5836884BDD4
S11300A085B5856085BDE8E6F0E080818260808367
S11300B0ECE6F0E0808182608083ECE7F0E0808110
S11300C080648083EAE7F0E08081836E8083FFCFE1
S11300D01F920F920FB60F9211242F938F939F9319
S11300E0EF93FF9331992CC080910001909101010D
S11300F0019799F417BC2A9880910001909101010D
S1130100019759F4EAE7F0E0808184FFFDCF809104
S113011078009091790087BD2B9A2FEF83ED90E3BF
S1130120215080409040E1F700C000008091000120
S11301309091010121E082279093010180930001B5
S1130140FF91EF919F918F912F910F900FBE0F9080
S10B01501F901895F894FFCFED
S9030000FC
