S01E00005461736B2031202853746570706572204D6F746F72292E737265639D
S11300000C9434000C943E000C943E000C943E007E
S11300100C943E000C943E000C943E000C943E0064
S11300200C943E000C943E000C943E000C943E0054
S11300300C943E000C943E000C943E000C943E0044
S11300400C943E000C943E000C943E000C943E0034
S11300500C943E000C943E000C943E000C943E0024
S11300600C943E000C943E0011241FBECFEFD8E048
S1130070DEBFCDBF0E9440000C949A000C94000097
S11300808FEF87B9E0E8F0E0808182608083E1E867
S1130090F0E080818D608083ECE7F0E08081806413
S11300A08083EAE7F0E08081836E8083AAE7B0E092
S11300B028E730E0E8E8F0E00F2EF4E8EF2EF12C2A
S11300C0F02D09EF13EF76EF6FEF8C9184FFFDCFE6
S11300D0E9018881998191838083E70119821882DB
S11300E086B54081518190E084179507C9F708B916
S11300F0E7011982188286B54081518190E0841706
S11301009507C9F718B9E7011982188286B54081A5
S1130110518190E084179507C9F778B9E7011982EE
S1130120188286B54081518190E084179507C9F7FC
S10B013068B9CBCFF894FFCFAE
S9030000FC
