:100000000C9434000C943E000C943E000C943E0082
:100010000C943E000C943E000C943E000C943E0068
:100020000C943E000C943E000C943E000C943E0058
:100030000C943E000C943E000C943E000C943E0048
:100040000C943E000C943E000C943E000C943E0038
:100050000C943E000C943E000C943E000C943E0028
:100060000C943E000C943E0011241FBECFEFD8E04C
:10007000DEBFCDBF0E9440000C9465000C940000D0
:10008000E0E8F0E08081826A8083E1E8F0E080814E
:100090008B61808383E087B980E287B9ECE7F0E089
:1000A000808180648083EAE7F0E08081836E8083D2
:1000B000C8E7D0E0A8E8B0E0808184FFFDCF888168
:0E00C000998111969C938E93F7CFF894FFCF01
:00000001FF
